:100000000C945D000C9485000C9485000C94850084
:100010000C9485000C9485000C9485000C9485004C
:100020000C9485000C9485000C9485000C9485003C
:100030000C9485000C9485000C9485000C9485002C
:100040000C942F030C9485000C9485000C9485006F
:100050000C9485000C9485000C9485000C9485000C
:100060000C9485000C94850000000008000201003B
:100070000003040700000000000000000000000072
:10008000250028002B0000000000240027002A0083
:10009000040404040404040402020202020203032E
:1000A0000303030301020408102040800102040836
:1000B0001020010204081020A10511241FBECFEF5B
:1000C000D8E0DEBFCDBF11E0A0E0B1E0E6E5F0E1B1
:1000D00002C005900D92AE35B107D9F722E0AEE52A
:1000E000B1E001C01D92A535B207E1F710E0CDE502
:1000F000D0E004C02197FE010E94E205CC35D10773
:10010000C9F70E9479030C9429080C94000090E030
:10011000FC01EC55FF4F2491FC01E057FF4F849107
:10012000882399F090E0880F991FFC01EA57FF4F50
:10013000A591B491FC01E458FF4F859194918FB73C
:10014000F894EC91E22BEC938FBF0895E0913D027F
:10015000F0913E020190F081E02D682F8DE392E056
:100160000994CF92DF92EF92FF920F931F93CF9358
:10017000DF936C017A018B01C0E0D0E0CE15DF0582
:1001800089F0D8016D918D01D601ED91FC9101901E
:10019000F081E02DC6010995892B11F47E0102C082
:1001A0002196ECCFC701DF91CF911F910F91FF9066
:1001B000EF90DF90CF90089590E0FC01E859FF4F59
:1001C0003491FC01EC55FF4F2491FC01E057FF4FA7
:1001D000E491EE2309F43BC0332339F1333091F03D
:1001E00038F43130A9F0323001F584B58F7D12C07A
:1001F000373091F03830A1F03430B9F4809180007C
:100200008F7D03C0809180008F77809380000DC028
:1002100084B58F7784BD09C08091B0008F7703C00B
:100220008091B0008F7D8093B000F0E0EE0FFF1F53
:10023000E458FF4FA591B4918FB7F894EC916111F8
:1002400003C020952E2301C02E2B2C938FBF089521
:100250003FB7F8948091630190916401A09165018A
:10026000B091660126B5A89B05C02F3F19F00196F5
:10027000A11DB11D3FBFBA2FA92F982F8827820F2C
:10028000911DA11DB11DBC01CD0142E0660F771F7C
:10029000881F991F4A95D1F708958F929F92AF9228
:1002A000BF92CF92DF92EF92FF926B017C010E948E
:1002B00028014B015C01C114D104E104F104F1F007
:1002C0000E942801DC01CB0188199909AA09BB0900
:1002D000883E9340A105B10570F321E0C21AD10810
:1002E000E108F10888EE880E83E0981EA11CB11C7D
:1002F000C114D104E104F10419F7DDCFFF90EF90B0
:10030000DF90CF90BF90AF909F908F900895CF9344
:10031000DF93EC0160E08E810E94DC0061E08E8161
:100320000E94DC0060E08E810E94DC008BE891E09E
:100330000197F1F7DF91CF910895CF92DF92EF927D
:10034000FF920F931F93CF93DF937C016C0187E0A3
:10035000C80ED11CC0E0D0E0062F10E0B8010C2E72
:1003600002C0759567950A94E2F76170F601819174
:100370006F010E94DC002196C430D10579F7C701D6
:10038000DF91CF911F910F91FF90EF90DF90CF9071
:100390000C948701CF92DF92EF92FF920F931F93FD
:1003A000CF93DF93EC01F62E642F8C810E94DC004A
:1003B0008D818F3F19F060E00E94DC008F850F2D4A
:1003C00010E084FF25C06E0187E0C80ED11CE12C2F
:1003D000F12CB8010E2C02C0759567950A94E2F7CE
:1003E0006170F60181916F010E94DC00FFEFEF1A4E
:1003F000FF0A88E0E816F10461F7CE01DF91CF91A2
:100400001F910F91FF90EF90DF90CF900C94870198
:10041000B80184E0759567958A95E1F7CE010E9451
:100420009D016F2DCE01DF91CF911F910F91FF9014
:10043000EF90DF90CF900C949D0141E00E94CA01A3
:1004400081E090E0089540E00C94CA01EF92FF92A1
:100450000F931F93CF93DF93EC01623018F08F85D9
:1004600088608F876B8B1C8A80E48D8B80E18E8BFC
:1004700080E58F8B8C810E9487008D818F3F11F0EA
:100480000E9487008E810E9487007E0187E0E80E2F
:10049000F11C00E010E08F8584FD03C084E090E053
:1004A00002C088E090E00817190744F4F701819131
:1004B0007F010E9487000F5F1F4FEDCF8BE39DE010
:1004C0000197F1F760E08C810E94DC0060E08E8192
:1004D0000E94DC008D818F3F19F060E00E94DC00FB
:1004E0006F8564FD1DC063E0CE010E949D010BE499
:1004F00016E4C8010197F1F763E0CE010E949D0167
:10050000C8010197F1F763E0CE010E949D0183E5E8
:1005100092E00197F1F762E0CE010E949D0116C0C2
:100520006062CE010E9423028BE496E40197F1F70A
:100530006F856062CE010E94230283E592E00197FD
:10054000F1F76F856062CE010E9423026F856062C1
:10055000CE010E94230284E0888B6CE0CE010E94D1
:10056000230261E0CE010E9423028BE39FE1019709
:10057000F1F782E0898B66E0CE01DF91CF911F9188
:100580000F91FF90EF900C942302643008F063E029
:1005900090915002691710F06FEF690FE62FF0E0AD
:1005A000E35CFD4F9489682F690F60688DE392E0EA
:1005B0000C942302009769F0FC0101900020E9F7F8
:1005C0003197AF01481B590BBC018DE392E00C94AD
:1005D000B10080E090E008958F929F92AF92BF9219
:1005E0000F931F93CF93DF93CDB7DEB7A1970FB6CD
:1005F000F894DEBF0FBECDBF19A2423008F44AE026
:100600008E010F5D1F4F842E912CA12CB12CA501C2
:1006100094010E94C005E62FB901CA0101501109D9
:10062000EA3014F4E05D01C0E95CD801EC93232BBF
:10063000242B252B61F7C8010E94DA02A1960FB680
:10064000F894DEBF0FBECDBFDF91CF911F910F9108
:10065000BF90AF909F908F9008950E9424081F92A2
:100660000F920FB60F9211242F933F938F939F9366
:10067000AF93BF9380915F0190916001A091610160
:10068000B091620130915E0123E0230F2D3720F4F9
:100690000196A11DB11D05C026E8230F0296A11DDC
:1006A000B11D20935E0180935F0190936001A09340
:1006B0006101B09362018091630190916401A09106
:1006C0006501B09166010196A11DB11D8093630182
:1006D00090936401A0936501B0936601BF91AF91BF
:1006E0009F918F913F912F910F900FBE0F901F9070
:1006F0001895789484B5826084BD84B5816084BD8A
:1007000085B5826085BD85B5816085BD80916E00AF
:10071000816080936E0010928100809181008260E0
:10072000809381008091810081608093810080911D
:1007300080008160809380008091B100846080930C
:10074000B1008091B00081608093B00080917A0008
:10075000846080937A0080917A00826080937A002E
:1007600080917A00816080937A0080917A0080681D
:1007700080937A001092C10062E08DE392E00E94C3
:10078000260260E084E00E94C50280E391E00E94BE
:10079000DA0264E670E080E090E00E944D0160E0E3
:1007A00085E00E94C50282E391E00E94DA0264E6DD
:1007B00070E080E090E00E944D0160E086E00E94E1
:1007C000C50284E391E00E94DA0268EE73E080E003
:1007D00090E00E944D013FE0E32EF12C45E2C42E53
:1007E000D12CC0E0D0E087015E01AE18BF0861E007
:1007F000802F0E94C502F801EA0DFB1DE85FFE4F45
:1008000080810E94A6000F5F1F4F0131110579F70B
:100810000E191F09C00FD11F60E273E080E090E065
:100820000E944D0121E0E21AF10841F42196C43101
:10083000D10531F42FE0E22EF12C02C0C0E0D0E06F
:1008400081E0C81AD10820F0C114D10461F6C9CFE3
:1008500061E080E00E94C50286E391E00E94DA0236
:1008600068EE73E080E090E00E944D0161E08DE36E
:1008700092E00E9423028BE39FE10197F1F790E45D
:10088000B92EC0E0D0E01092390210923A021092D4
:100890003B0210923C0205EE11E0109235021092DC
:1008A0003602109237021092380287E6E82E81E075
:1008B000F82EB0927C0080917A00806480937A0058
:1008C00080917A0086FDFCCF60917800809179005C
:1008D00070E06B01D82AD092E001C092DF016AE09B
:1008E00070E080E090E00E944D01B601DD0C880BC5
:1008F000990B0E94FD06F701619371938193919387
:100900007F0120913502309136024091370250919B
:1009100038020E94E9056093350270933602809395
:10092000370290933802FFEDEF16F1E0FF0609F66B
:1009300020E030E040EF51E40E945A066093350217
:1009400070933602809337029093380220E030E0B3
:100950004AEF5EE30E94B207F801619371938193BD
:1009600091938F012091390230913A0240913B02DC
:1009700050913C020E94E9056093390270933A025B
:1009800080933B0290933C02F2E005331F0709F08D
:1009900084CF20E030E040EA51E40E945A066093A0
:1009A000390270933A0280933B0290933C02609329
:1009B000E1017093E2018093E3019093E40161E02F
:1009C00081E00E94C50287E491E00E94DA0261E0C2
:1009D00087E00E94C502C090E101D090E201E09062
:1009E000E301F090E401A7019601C701B6010E945E
:1009F0001F08882319F08FE491E01AC026013701FF
:100A0000E89477F82FEF3FEF4FE75FE7C301B201BC
:100A10000E941F0881110FC02FEF3FEF4FE75FE7E4
:100A2000C301B2010E94550618162CF483E591E02B
:100A30000E94DA0272C02FEF3FEF4FE75FE4C70179
:100A4000B6010E94AD0718161CF487E591E0F0CFBF
:100A50002FEF3FEF4FE75FECC701B6010E9455064D
:100A600087FDF3CF20E030E0A901C701B6010E9465
:100A7000550687FF07C08DE20E94A600F7FAF094A2
:100A8000F7F8F0942AE037ED43EA5BE3C701B601DB
:100A90000E94E9052B013C010E94CC066B017C0100
:100AA0000E94FB069B01AC01C301B2010E94E80554
:100AB0002B013C014AE0C701B6010E94EC028EE224
:100AC0000E94A60020E030E040E251E4C301B20100
:100AD0000E94B2072B013C010E94CC066B01E12C65
:100AE000F12C4AE0C701B6010E94EC02C701B60131
:100AF0000E94FB069B01AC01C301B2010E94E80504
:100B000020E030E040E251E40E94B2070E94CC06AF
:100B100080E090E04AE00E94EC0261E08DE00E94FB
:100B2000C5028BE591E00E94DA0261E070E080E0AE
:100B300090E00E944D01209709F4A5CE0E9400008C
:100B4000A2CEEDE3F2E01382128284E091E0918381
:100B500080838DE084838CE085838BE086838AE0CC
:100B6000878389E0808788E0818787E08287138692
:100B7000148615861686178661E0CF010C9426022E
:100B8000A1E21A2EAA1BBB1BFD010DC0AA1FBB1F91
:100B9000EE1FFF1FA217B307E407F50720F0A21B03
:100BA000B30BE40BF50B661F771F881F991F1A9470
:100BB00069F760957095809590959B01AC01BD019A
:100BC000CF010895EE0FFF1F0590F491E02D0994D9
:100BD0005058BB27AA270E9400060C9473070E9456
:100BE000650738F00E946C0720F039F49F3F19F434
:100BF00026F40C9462070EF4E095E7FB0C945C0776
:100C0000E92F0E94840758F3BA1762077307840715
:100C1000950720F079F4A6F50C94A6070EF4E0955C
:100C20000B2EBA2FA02D0B01B90190010C01CA01A6
:100C3000A0011124FF27591B99F0593F50F4503E51
:100C400068F11A16F040A22F232F342F4427585F43
:100C5000F3CF469537952795A795F0405395C9F75B
:100C60007EF41F16BA0B620B730B840BBAF0915013
:100C7000A1F0FF0FBB1F661F771F881FC2F70EC0B2
:100C8000BA0F621F731F841F48F487957795679585
:100C9000B795F7959E3F08F0B0CF9395880F08F071
:100CA0009927EE0F9795879508950E94380708F4C5
:100CB00081E008950E946E060C9473070E946C07F1
:100CC00058F00E94650740F029F45F3F29F00C942A
:100CD0005C0751110C94A7070C9462070E948407CB
:100CE00068F39923B1F3552391F3951B550BBB275B
:100CF000AA2762177307840738F09F5F5F4F220FA0
:100D0000331F441FAA1FA9F335D00E2E3AF0E0E896
:100D100032D091505040E695001CCAF72BD0FE2FE0
:100D200029D0660F771F881FBB1F26173707480774
:100D3000AB07B0E809F0BB0B802DBF01FF2793582C
:100D40005F4F3AF09E3F510578F00C945C070C948D
:100D5000A7075F3FE4F3983ED4F3869577956795B0
:100D6000B795F7959F5FC9F7880F911D9695879561
:100D700097F90895E1E0660F771F881FBB1F621780
:100D800073078407BA0720F0621B730B840BBA0B3E
:100D9000EE1F88F7E09508950E948C0788F09F5712
:100DA00098F0B92F9927B751B0F0E1F0660F771F8F
:100DB000881F991F1AF0BA95C9F714C0B13091F085
:100DC0000E94A607B1E008950C94A607672F782F1C
:100DD0008827B85F39F0B93FCCF38695779567954A
:100DE000B395D9F73EF490958095709561957F4FB6
:100DF0008F4F9F4F0895E89409C097FB3EF490955C
:100E00008095709561957F4F8F4F9F4F9923A9F0E3
:100E1000F92F96E9BB279395F69587957795679572
:100E2000B795F111F8CFFAF4BB0F11F460FF1BC0B6
:100E30006F5F7F4F8F4F9F4F16C0882311F096E949
:100E400011C0772321F09EE8872F762F05C06623F7
:100E500071F096E8862F70E060E02AF09A95660FB0
:100E6000771F881FDAF7880F9695879597F9089569
:100E7000990F0008550FAA0BE0E8FEEF16161706AB
:100E8000E807F907C0F012161306E407F50798F013
:100E9000621B730B840B950B39F40A2661F0232B2C
:100EA000242B252B21F408950A2609F4A140A695A8
:100EB0008FEF811D811D089597F99F6780E870E08D
:100EC00060E008959FEF80EC089500240A941616C0
:100ED000170618060906089500240A941216130628
:100EE000140605060895092E0394000C11F48823B6
:100EF00052F0BB0F40F4BF2B11F460FF04C06F5FD2
:100F00007F4F8F4F9F4F089557FD9058440F551FA7
:100F100059F05F3F71F04795880F97FB991F61F07B
:100F20009F3F79F087950895121613061406551FF2
:100F3000F2CF4695F1DF08C0161617061806991F5E
:100F4000F1CF86957105610508940895E894BB2753
:100F500066277727CB0197F908950E94380708F490
:100F60008FEF08950E94C5070C9473070E946507D0
:100F700038F00E946C0720F0952311F00C945C0768
:100F80000C94620711240C94A7070E94840770F345
:100F9000959FC1F3950F50E0551F629FF001729F1E
:100FA000BB27F00DB11D639FAA27F00DB11DAA1F2D
:100FB000649F6627B00DA11D661F829F2227B00D7A
:100FC000A11D621F739FB00DA11D621F839FA00D05
:100FD000611D221F749F3327A00D611D231F849F55
:100FE000600D211D822F762F6A2F11249F575040AC
:100FF0009AF0F1F088234AF0EE0FFF1FBB1F661F27
:10100000771F881F91505040A9F79E3F510580F0EF
:101010000C945C070C94A7075F3FE4F3983ED4F36D
:10102000869577956795B795F795E7959F5FC1F793
:10103000FE2B880F911D9695879597F908950E942C
:101040003807880B990B089581E090E0F8940C9490
:061050002908F894FFCF0F
:10105600000000001D02B10054686520416C676500
:101066007269616E20446576656C6F7065722020CA
:10107600202020202020202020202020202020206A
:101086005400410044004C4F4144494E472E2E2EF9
:101096002E2E2E2E2E2E0054656D70203D20006EB5
:0E10A600616E00696E66006F766600430000A2
:00000001FF
